{
  "contractName": "BloomFilter",
  "abi": [
    {
      "constant": true,
      "inputs": [
        {
          "name": "_itemNum",
          "type": "uint256"
        }
      ],
      "name": "getHashCount",
      "outputs": [
        {
          "name": "",
          "type": "uint8"
        }
      ],
      "payable": false,
      "stateMutability": "pure",
      "type": "function"
    },
    {
      "constant": true,
      "inputs": [
        {
          "name": "_bitmap",
          "type": "uint256"
        },
        {
          "name": "_hashCount",
          "type": "uint8"
        },
        {
          "name": "_item",
          "type": "bytes32"
        }
      ],
      "name": "addToBitmap",
      "outputs": [
        {
          "name": "_newBitmap",
          "type": "uint256"
        }
      ],
      "payable": false,
      "stateMutability": "pure",
      "type": "function"
    },
    {
      "constant": true,
      "inputs": [
        {
          "name": "_bitmap",
          "type": "uint256"
        },
        {
          "name": "_hashCount",
          "type": "uint8"
        },
        {
          "name": "_item",
          "type": "bytes32"
        }
      ],
      "name": "falsePositive",
      "outputs": [
        {
          "name": "_probablyPresent",
          "type": "bool"
        }
      ],
      "payable": false,
      "stateMutability": "pure",
      "type": "function"
    }
  ],
  "bytecode": "0x6104d6610030600b82828239805160001a6073146000811461002057610022565bfe5b5030600052607381538281f3fe730000000000000000000000000000000000000000301460806040526004361061006e576000357c0100000000000000000000000000000000000000000000000000000000900463ffffffff16806312540bc71461007357806316ccd1ec146100d0578063250e7a4a14610129575b600080fd5b6100b66004803603606081101561008957600080fd5b8101908080359060200190929190803560ff16906020019092919080359060200190929190505050610171565b604051808215151515815260200191505060405180910390f35b610113600480360360608110156100e657600080fd5b8101908080359060200190929190803560ff169060200190929190803590602001909291905050506102fa565b6040518082815260200191505060405180910390f35b6101556004803603602081101561013f57600080fd5b8101908080359060200190929190505050610473565b604051808260ff1660ff16815260200191505060405180910390f35b6000808360ff161115156101ed576040517f08c379a000000000000000000000000000000000000000000000000000000000815260040180806020018281038252601a8152602001807f4861736820636f756e742063616e206e6f74206265207a65726f00000000000081525060200191505060405180910390fd5b60008090505b8360ff168110156102ed57600061010084836040516020018083815260200182815260200192505050604051602081830303815290604052805190602001206001900481151561023f57fe5b069050610100811015156102bb576040517f08c379a000000000000000000000000000000000000000000000000000000000815260040180806020018281038252600e8152602001807f4f766572666c6f77206572726f7200000000000000000000000000000000000081525060200191505060405180910390fd5b60008160019060020a029050808717871415156102de57600093505050506102f3565b505080806001019150506101f3565b50600190505b9392505050565b600083905060008360ff1611151561037a576040517f08c379a000000000000000000000000000000000000000000000000000000000815260040180806020018281038252601a8152602001807f4861736820636f756e742063616e206e6f74206265207a65726f00000000000081525060200191505060405180910390fd5b60008090505b8360ff168110156104685760006101008483604051602001808381526020018281526020019250505060405160208183030381529060405280519060200120600190048115156103cc57fe5b06905061010081101515610448576040517f08c379a000000000000000000000000000000000000000000000000000000000815260040180806020018281038252600e8152602001807f4f766572666c6f77206572726f7200000000000000000000000000000000000081525060200191505060405180910390fd5b60008160019060020a029050808417935050508080600101915050610380565b508090509392505050565b60008060016064840261900081151561048857fe5b0401905061010081101561049f57809150506104a5565b60ff9150505b91905056fea165627a7a72305820553b16c86003890ae8696a9debaebbbb7d3b50851a472c1d18729a96af5ca64b0029",
  "source": "pragma solidity >=0.4.21 < 0.6.0;\n\nlibrary BloomFilter {\n    struct Filter {\n        uint256[20] bitmaps;\n        uint8 hashCount;\n        bool state;\n        //count the item\n        uint256 ctr;\n        uint256 index;\n    }\n   \n    /**\n     * @dev It returns how many times it should be hashed, when the expected\n     * number of input items is _itenNum.\n     * @param _itemNum Expected number of input items\n     */\n    function getHashCount(uint _itemNum) public pure returns(uint8) {\n        uint numOfHash = (256 * 144) / (_itemNum * 100) + 1;\n        if(numOfHash < 256) return uint8(numOfHash);\n        else return 255;\n    }\n\n    /**\n     * @dev It returns updated bitmap when a new item is added into the bitmap\n     * @param _bitmap Original bitmap\n     * @param _hashCount How many times to hash. You should use the same value with the one\n        which is used for the original bitmap.\n     * @param _item Hash value of an item\n     */\n    function addToBitmap(uint256 _bitmap,  uint8 _hashCount, bytes32 _item) public pure returns(uint256 _newBitmap) {\n        _newBitmap = _bitmap;\n        require(_hashCount > 0, \"Hash count can not be zero\");\n        for(uint i = 0; i < _hashCount; i++) {\n            uint256 position = uint256(keccak256(abi.encodePacked(_item, i))) % 256;\n            require(position < 256, \"Overflow error\");\n            uint256 digest = 1 << position;\n            _newBitmap = _newBitmap | digest;\n        }\n        return _newBitmap;\n    }\n\n    /**\n     * @dev It returns it may exist or definitely not exist.\n     * @param _bitmap Original bitmap\n     * @param _hashCount How many times to hash. You should use the same value with the one\n        which is used for the original bitmap.\n     * @param _item Hash value of an item\n     */\n    function falsePositive(uint256 _bitmap,  uint8 _hashCount, bytes32 _item) public pure returns(bool _probablyPresent){\n        require(_hashCount > 0, \"Hash count can not be zero\");\n        for(uint i = 0; i < _hashCount; i++) {\n            uint256 position = uint256(keccak256(abi.encodePacked(_item, i))) % 256;\n            require(position < 256, \"Overflow error\");\n            uint256 digest = 1 << position;\n            if(_bitmap != _bitmap | digest) return false;\n        }\n        return true;\n    }\n\n    // Please see the test/TestBloomFilter.sol to know how to use this library in another contract.\n\n    /**\n     * @dev It initialize the Filter struct. It sets the appropriate hash count for the expected number of item\n     * @param _itemNum Expected number of items to be added\n     */\n    function init(Filter storage _filter, uint _itemNum) internal {\n        _filter.hashCount = getHashCount(_itemNum);\n        _filter.state=true;\n        _filter.ctr=0;\n    }\n\n    /**\n     * @dev It updates the bitmap of the filter using the given item value\n     * @param _item Hash value of an item\n     */\n    function add(Filter storage _filter, bytes32 _item) internal {\n        _filter.index=_filter.ctr / 50;\n        if (_filter.index==20) {\n            //clear all bitmaps\n            empty(_filter);\n        }\n        _filter.bitmaps[_filter.index] = addToBitmap(_filter.bitmaps[_filter.index], _filter.hashCount, _item);\n        _filter.ctr++;\n    }\n\n    /**\n     * @dev It returns the filter may include the item or definitely now include it.\n     * @param _item Hash value of an item\n     */\n    function check(Filter storage _filter, bytes32 _item) internal view returns(bool) {\n        for (uint i=0;i<19;i++) {\n            if (falsePositive(_filter.bitmaps[i], _filter.hashCount, _item)==true) {\n                return true;\n            }\n        }\n        return false;\n    }\n\n    function empty(Filter storage _filter) internal {\n        for (uint i=0;i<20;i++) {\n            _filter.bitmaps[i]=0;\n        }\n        _filter.hashCount=0;\n        _filter.state=false;\n        _filter.ctr=0;\n        _filter.index=0;\n    }\n}\n",
  "sourcePath": "D:/Project/DistributedAKA/contracts/BloomFilter.sol",
  "compiler": {
    "name": "solc",
    "version": "0.5.0+commit.1d4f565a.Emscripten.clang"
  },
  "schemaVersion": "3.0.2",
  "updatedAt": "2023-08-03T10:02:46.171Z",
  "devdoc": {
    "methods": {
      "addToBitmap(uint256,uint8,bytes32)": {
        "details": "It returns updated bitmap when a new item is added into the bitmap",
        "params": {
          "_bitmap": "Original bitmap",
          "_hashCount": "How many times to hash. You should use the same value with the one which is used for the original bitmap.",
          "_item": "Hash value of an item"
        }
      },
      "falsePositive(uint256,uint8,bytes32)": {
        "details": "It returns it may exist or definitely not exist.",
        "params": {
          "_bitmap": "Original bitmap",
          "_hashCount": "How many times to hash. You should use the same value with the one which is used for the original bitmap.",
          "_item": "Hash value of an item"
        }
      },
      "getHashCount(uint256)": {
        "details": "It returns how many times it should be hashed, when the expected number of input items is _itenNum.",
        "params": {
          "_itemNum": "Expected number of input items"
        }
      }
    }
  },
  "userdoc": {
    "methods": {}
  }
}