{
  "contractName": "MainContract",
  "abi": [
    {
      "constant": true,
      "inputs": [
        {
          "name": "",
          "type": "bytes32"
        },
        {
          "name": "",
          "type": "uint256"
        }
      ],
      "name": "tokens",
      "outputs": [
        {
          "name": "sigma",
          "type": "bytes32"
        },
        {
          "name": "pkx",
          "type": "bytes32"
        },
        {
          "name": "yflag",
          "type": "bool"
        }
      ],
      "payable": false,
      "stateMutability": "view",
      "type": "function"
    },
    {
      "constant": true,
      "inputs": [
        {
          "name": "",
          "type": "address"
        }
      ],
      "name": "esAddrs",
      "outputs": [
        {
          "name": "",
          "type": "bool"
        }
      ],
      "payable": false,
      "stateMutability": "view",
      "type": "function"
    },
    {
      "constant": true,
      "inputs": [
        {
          "name": "",
          "type": "bytes32"
        }
      ],
      "name": "count",
      "outputs": [
        {
          "name": "",
          "type": "uint8"
        }
      ],
      "payable": false,
      "stateMutability": "view",
      "type": "function"
    },
    {
      "constant": true,
      "inputs": [
        {
          "name": "",
          "type": "address"
        },
        {
          "name": "",
          "type": "address"
        }
      ],
      "name": "vehs",
      "outputs": [
        {
          "name": "",
          "type": "bool"
        }
      ],
      "payable": false,
      "stateMutability": "view",
      "type": "function"
    },
    {
      "anonymous": false,
      "inputs": [],
      "name": "TokenAggregateEvent",
      "type": "event"
    },
    {
      "anonymous": false,
      "inputs": [],
      "name": "PKRevocationEvent",
      "type": "event"
    },
    {
      "anonymous": false,
      "inputs": [
        {
          "indexed": false,
          "name": "",
          "type": "address[]"
        }
      ],
      "name": "InitializedEvent",
      "type": "event"
    },
    {
      "constant": false,
      "inputs": [
        {
          "name": "ESAddr",
          "type": "address[]"
        },
        {
          "name": "capacity",
          "type": "uint256"
        },
        {
          "name": "bucketSize",
          "type": "uint256"
        },
        {
          "name": "maxKicks",
          "type": "uint256"
        }
      ],
      "name": "initiate",
      "outputs": [],
      "payable": false,
      "stateMutability": "nonpayable",
      "type": "function"
    },
    {
      "constant": false,
      "inputs": [
        {
          "name": "item",
          "type": "bytes32"
        }
      ],
      "name": "insert",
      "outputs": [
        {
          "name": "",
          "type": "bool"
        }
      ],
      "payable": false,
      "stateMutability": "nonpayable",
      "type": "function"
    },
    {
      "constant": true,
      "inputs": [
        {
          "name": "item",
          "type": "bytes32"
        }
      ],
      "name": "contains",
      "outputs": [
        {
          "name": "",
          "type": "bool"
        }
      ],
      "payable": false,
      "stateMutability": "view",
      "type": "function"
    },
    {
      "constant": false,
      "inputs": [
        {
          "name": "item",
          "type": "bytes32"
        }
      ],
      "name": "deletepk",
      "outputs": [],
      "payable": false,
      "stateMutability": "nonpayable",
      "type": "function"
    },
    {
      "constant": false,
      "inputs": [
        {
          "name": "vehAddr",
          "type": "address"
        }
      ],
      "name": "registerVehicle",
      "outputs": [
        {
          "name": "",
          "type": "bool"
        }
      ],
      "payable": false,
      "stateMutability": "nonpayable",
      "type": "function"
    },
    {
      "constant": true,
      "inputs": [
        {
          "name": "ESAddr",
          "type": "address"
        },
        {
          "name": "vehAddr",
          "type": "address"
        }
      ],
      "name": "isVehRegistered",
      "outputs": [
        {
          "name": "",
          "type": "bool"
        }
      ],
      "payable": false,
      "stateMutability": "view",
      "type": "function"
    },
    {
      "constant": false,
      "inputs": [
        {
          "name": "ESaddr",
          "type": "address"
        },
        {
          "name": "pkList",
          "type": "bytes32[]"
        }
      ],
      "name": "pkRegister",
      "outputs": [
        {
          "name": "",
          "type": "bool"
        }
      ],
      "payable": false,
      "stateMutability": "nonpayable",
      "type": "function"
    },
    {
      "constant": true,
      "inputs": [
        {
          "name": "pkList",
          "type": "bytes32[]"
        }
      ],
      "name": "pkVerify",
      "outputs": [
        {
          "name": "",
          "type": "bool"
        }
      ],
      "payable": false,
      "stateMutability": "view",
      "type": "function"
    },
    {
      "constant": false,
      "inputs": [
        {
          "name": "transhash",
          "type": "bytes32"
        },
        {
          "name": "sigma",
          "type": "bytes32"
        },
        {
          "name": "pkx",
          "type": "bytes32"
        },
        {
          "name": "pky",
          "type": "bool"
        }
      ],
      "name": "tokenAggregate",
      "outputs": [],
      "payable": false,
      "stateMutability": "nonpayable",
      "type": "function"
    },
    {
      "constant": true,
      "inputs": [
        {
          "name": "transhash",
          "type": "bytes32"
        }
      ],
      "name": "validateTokens",
      "outputs": [
        {
          "name": "",
          "type": "uint8"
        }
      ],
      "payable": false,
      "stateMutability": "view",
      "type": "function"
    },
    {
      "constant": true,
      "inputs": [],
      "name": "getStateInfo",
      "outputs": [
        {
          "name": "",
          "type": "uint256"
        },
        {
          "name": "",
          "type": "uint256"
        }
      ],
      "payable": false,
      "stateMutability": "view",
      "type": "function"
    }
  ],
  "bytecode": "0x6080604052736151189c9fdef6687b384a7d49439da96729e123600560006101000a81548173ffffffffffffffffffffffffffffffffffffffff021916908373ffffffffffffffffffffffffffffffffffffffff16021790555034801561006557600080fd5b50611a4a806100756000396000f3fe6080604052600436106100da576000357c0100000000000000000000000000000000000000000000000000000000900463ffffffff168062535109146100df5780630d6a350e1461014a5780631d1a696d1461022757806329a49a591461027a5780632d287e43146102e35780635aeeb906146103365780636c449e7a146104195780637937354c146104825780637c234637146104d757806380c81c161461052c578063ba2286061461055e578063bf8e8919146105e7578063d874777f146106e4578063de8d24001461073f578063f634b5091461077a575b600080fd5b3480156100eb57600080fd5b506101226004803603604081101561010257600080fd5b810190808035906020019092919080359060200190929190505050610803565b6040518084815260200183815260200182151515158152602001935050505060405180910390f35b34801561015657600080fd5b5061020d6004803603602081101561016d57600080fd5b810190808035906020019064010000000081111561018a57600080fd5b82018360208201111561019c57600080fd5b803590602001918460208302840111640100000000831117156101be57600080fd5b919080806020026020016040519081016040528093929190818152602001838360200280828437600081840152601f19601f820116905080830192505050505050509192919290505050610847565b604051808215151515815260200191505060405180910390f35b34801561023357600080fd5b506102606004803603602081101561024a57600080fd5b81019080803590602001909291905050506108b1565b604051808215151515815260200191505060405180910390f35b34801561028657600080fd5b506102c96004803603602081101561029d57600080fd5b81019080803573ffffffffffffffffffffffffffffffffffffffff1690602001909291905050506108ce565b604051808215151515815260200191505060405180910390f35b3480156102ef57600080fd5b5061031c6004803603602081101561030657600080fd5b81019080803590602001909291905050506108ee565b604051808215151515815260200191505060405180910390f35b34801561034257600080fd5b506104176004803603608081101561035957600080fd5b810190808035906020019064010000000081111561037657600080fd5b82018360208201111561038857600080fd5b803590602001918460208302840111640100000000831117156103aa57600080fd5b919080806020026020016040519081016040528093929190818152602001838360200280828437600081840152601f19601f820116905080830192505050505050509192919290803590602001909291908035906020019092919080359060200190929190505050610910565b005b34801561042557600080fd5b506104686004803603602081101561043c57600080fd5b81019080803573ffffffffffffffffffffffffffffffffffffffff169060200190929190505050610a94565b604051808215151515815260200191505060405180910390f35b34801561048e57600080fd5b506104bb600480360360208110156104a557600080fd5b8101908080359060200190929190505050610c33565b604051808260ff1660ff16815260200191505060405180910390f35b3480156104e357600080fd5b50610510600480360360208110156104fa57600080fd5b8101908080359060200190929190505050610c53565b604051808260ff1660ff16815260200191505060405180910390f35b34801561053857600080fd5b50610541610c98565b604051808381526020018281526020019250505060405180910390f35b34801561056a57600080fd5b506105cd6004803603604081101561058157600080fd5b81019080803573ffffffffffffffffffffffffffffffffffffffff169060200190929190803573ffffffffffffffffffffffffffffffffffffffff169060200190929190505050610caf565b604051808215151515815260200191505060405180910390f35b3480156105f357600080fd5b506106ca6004803603604081101561060a57600080fd5b81019080803573ffffffffffffffffffffffffffffffffffffffff1690602001909291908035906020019064010000000081111561064757600080fd5b82018360208201111561065957600080fd5b8035906020019184602083028401116401000000008311171561067b57600080fd5b919080806020026020016040519081016040528093929190818152602001838360200280828437600081840152601f19601f820116905080830192505050505050509192919290505050610d43565b604051808215151515815260200191505060405180910390f35b3480156106f057600080fd5b5061073d6004803603608081101561070757600080fd5b81019080803590602001909291908035906020019092919080359060200190929190803515159060200190929190505050610e34565b005b34801561074b57600080fd5b506107786004803603602081101561076257600080fd5b8101908080359060200190929190505050610f96565b005b34801561078657600080fd5b506107e96004803603604081101561079d57600080fd5b81019080803573ffffffffffffffffffffffffffffffffffffffff169060200190929190803573ffffffffffffffffffffffffffffffffffffffff169060200190929190505050611039565b604051808215151515815260200191505060405180910390f35b6008602052816000526040600020602052806000526040600020600091509150508060000154908060010154908060020160009054906101000a900460ff16905083565b600080600090505b82518110156108a65760001515610887848381518110151561086d57fe5b90602001906020020151600061106890919063ffffffff16565b151514156108995760009150506108ac565b808060010191505061084f565b50600190505b919050565b60006108c782600061106890919063ffffffff16565b9050919050565b60066020528060005260406000206000915054906101000a900460ff1681565b6000806109058360006110fb90919063ffffffff16565b905080915050919050565b600560009054906101000a900473ffffffffffffffffffffffffffffffffffffffff1673ffffffffffffffffffffffffffffffffffffffff163373ffffffffffffffffffffffffffffffffffffffff1614151561096c57600080fd5b60008090505b84518110156109fd576000858281518110151561098b57fe5b9060200190602002015190506001600660008373ffffffffffffffffffffffffffffffffffffffff1673ffffffffffffffffffffffffffffffffffffffff16815260200190815260200160002060006101000a81548160ff021916908315150217905550508080600101915050610972565b50610a168383836000611353909392919063ffffffff16565b7fee252b7dee58b50762c47159e6468877c6b5f012d2f24a20b0cce54657db0cfb846040518080602001828103825283818151815260200191508051906020019060200280838360005b83811015610a7b578082015181840152602081019050610a60565b505050509050019250505060405180910390a150505050565b600060011515600660003373ffffffffffffffffffffffffffffffffffffffff1673ffffffffffffffffffffffffffffffffffffffff16815260200190815260200160002060009054906101000a900460ff161515141515610af557600080fd5b60011515600760003373ffffffffffffffffffffffffffffffffffffffff1673ffffffffffffffffffffffffffffffffffffffff16815260200190815260200160002060008473ffffffffffffffffffffffffffffffffffffffff1673ffffffffffffffffffffffffffffffffffffffff16815260200190815260200160002060009054906101000a900460ff1615151415610b945760009050610c2e565b6001600760003373ffffffffffffffffffffffffffffffffffffffff1673ffffffffffffffffffffffffffffffffffffffff16815260200190815260200160002060008473ffffffffffffffffffffffffffffffffffffffff1673ffffffffffffffffffffffffffffffffffffffff16815260200190815260200160002060006101000a81548160ff021916908315150217905550600190505b919050565b60096020528060005260406000206000915054906101000a900460ff1681565b6000806009600084815260200190815260200160002060009054906101000a900460ff169050600160ff168160ff1610151515610c8f57600080fd5b80915050919050565b600080600060010154600060020154915091509091565b6000600760008473ffffffffffffffffffffffffffffffffffffffff1673ffffffffffffffffffffffffffffffffffffffff16815260200190815260200160002060008373ffffffffffffffffffffffffffffffffffffffff1673ffffffffffffffffffffffffffffffffffffffff16815260200190815260200160002060009054906101000a900460ff16905092915050565b600060011515600760008573ffffffffffffffffffffffffffffffffffffffff1673ffffffffffffffffffffffffffffffffffffffff16815260200190815260200160002060003373ffffffffffffffffffffffffffffffffffffffff1673ffffffffffffffffffffffffffffffffffffffff16815260200190815260200160002060009054906101000a900460ff161515141515610de157600080fd5b60008090505b8251811015610e2957610e1b8382815181101515610e0157fe5b9060200190602002015160006110fb90919063ffffffff16565b508080600101915050610de7565b506001905092915050565b60011515600660003373ffffffffffffffffffffffffffffffffffffffff1673ffffffffffffffffffffffffffffffffffffffff16815260200190815260200160002060009054906101000a900460ff161515141515610e9357600080fd5b60006009600086815260200190815260200160002060009054906101000a900460ff1690506060604051908101604052808581526020018481526020018315158152506008600087815260200190815260200160002060008360ff168152602001908152602001600020600082015181600001556020820151816001015560408201518160020160006101000a81548160ff021916908315150217905550905050600181016009600087815260200190815260200160002060006101000a81548160ff021916908360ff1602179055507fe3dae26d0eb3fac718ef7abd63541cd5f8c369c3a1d8e502b838b192deaf981260405160405180910390a15050505050565b60011515600660003373ffffffffffffffffffffffffffffffffffffffff1673ffffffffffffffffffffffffffffffffffffffff16815260200190815260200160002060009054906101000a900460ff161515141515610ff557600080fd5b61100981600061144690919063ffffffff16565b507f6060af1a72608bcc26f8a4c8c2e2f6288ea48a3d7d9bb0d69a41f15f21793b7060405160405180910390a150565b60076020528160005260406000206020528060005260406000206000915091509054906101000a900460ff1681565b6000806110748361154c565b9050600084600101546110868561155d565b81151561108f57fe5b069050600061109f868385611591565b90506110c586600001838154811015156110b557fe5b90600052602060002001846115be565b806110f057506110ef86600001828154811015156110df57fe5b90600052602060002001846115be565b5b935050505092915050565b60008260010154836003015410151561117c576040517f08c379a000000000000000000000000000000000000000000000000000000000815260040180806020018281038252600e8152602001807f46696c7465722069732066756c6c00000000000000000000000000000000000081525060200191505060405180910390fd5b60006111878361154c565b9050600084600101546111998561155d565b8115156111a257fe5b06905060006111b2868385611591565b90506111bf868385611630565b806111d157506111d0868285611630565b5b156111f65785600301600081548092919060010191905055506001935050505061134d565b60008090505b866004015481101561134457600083830342836040516020018083815260200182815260200192505050604051602081830303815290604052805190602001206001900481151561124957fe5b06840190506000886000018281548110151561126157fe5b90600052602060002001600081548110151561127957fe5b90600052602060002090602091828204019190069054906101000a900460ff1690508589600001838154811015156112ad57fe5b9060005260206000200160008154811015156112c557fe5b90600052602060002090602091828204019190066101000a81548160ff021916908360ff160217905550611307896113018b858560ff16611591565b83611630565b1561132f5788600301600081548092919060010191905055506001965050505050505061134d565b8060ff169550505080806001019150506111fc565b50600093505050505b92915050565b82846001018190555081846002018190555060008460030181905550808460040181905550826040519080825280602002602001820160405280156113ac57816020015b60608152602001906001900390816113975790505b508460000190805190602001906113c49291906117c7565b5060008090505b8381101561143f57826040519080825280602002602001820160405280156114025781602001602082028038833980820191505090505b50856000018281548110151561141457fe5b906000526020600020019080519060200190611431929190611827565b5080806001019150506113cb565b5050505050565b60008083600301541115156114c3576040517f08c379a000000000000000000000000000000000000000000000000000000000815260040180806020018281038252600f8152602001807f46696c74657220697320656d707479000000000000000000000000000000000081525060200191505060405180910390fd5b60006114ce8361154c565b9050600084600101546114e08561155d565b8115156114e957fe5b06905060006114f9868385611591565b90506115068683856116fa565b8061151857506115178682856116fa565b5b1561153e5785600301600081548092919060019003919050555060019350505050611546565b600093505050505b92915050565b600060ff8260019004169050919050565b6000816040516020018082815260200191505060405160208183030381529060405280519060200120600190049050919050565b60008084600101546115a58460010261155d565b85188115156115b057fe5b069050809150509392505050565b600080600090505b8380549050811015611624578260ff1684828154811015156115e457fe5b90600052602060002090602091828204019190069054906101000a900460ff1660ff16141561161757600191505061162a565b80806001019150506115c6565b50600090505b92915050565b600080846000018481548110151561164457fe5b90600052602060002001905060008090505b85600201548110156116ec576000828281548110151561167257fe5b90600052602060002090602091828204019190069054906101000a900460ff1660ff1614156116df578382828154811015156116aa57fe5b90600052602060002090602091828204019190066101000a81548160ff021916908360ff1602179055506001925050506116f3565b8080600101915050611656565b5060009150505b9392505050565b600080846000018481548110151561170e57fe5b90600052602060002001905060008090505b85600201548110156117b9578360ff16828281548110151561173e57fe5b90600052602060002090602091828204019190069054906101000a900460ff1660ff1614156117ac576000828281548110151561177757fe5b90600052602060002090602091828204019190066101000a81548160ff021916908360ff1602179055506001925050506117c0565b8080600101915050611720565b5060009150505b9392505050565b828054828255906000526020600020908101928215611816579160200282015b828111156118155782518290805190602001906118059291906118ce565b50916020019190600101906117e7565b5b5090506118239190611975565b5090565b82805482825590600052602060002090601f016020900481019282156118bd5791602002820160005b8382111561188e57835183826101000a81548160ff021916908360ff1602179055509260200192600101602081600001049283019260010302611850565b80156118bb5782816101000a81549060ff021916905560010160208160000104928301926001030261188e565b505b5090506118ca91906119a1565b5090565b82805482825590600052602060002090601f016020900481019282156119645791602002820160005b8382111561193557835183826101000a81548160ff021916908360ff16021790555092602001926001016020816000010492830192600103026118f7565b80156119625782816101000a81549060ff0219169055600101602081600001049283019260010302611935565b505b50905061197191906119a1565b5090565b61199e91905b8082111561199a576000818161199191906119d1565b5060010161197b565b5090565b90565b6119ce91905b808211156119ca57600081816101000a81549060ff0219169055506001016119a7565b5090565b90565b50805460008255601f0160209004906000526020600020908101906119f691906119f9565b50565b611a1b91905b80821115611a175760008160009055506001016119ff565b5090565b9056fea165627a7a723058209cfbffb68396765305639255f5e41051c1d7e3c50bafa45d7fc5c85c446033430029",
  "source": "pragma solidity >=0.4.21;\r\nimport \"../contracts/CuckooFilter.sol\";\r\n\r\ncontract MainContract {\r\n    using CuckooFilter for CuckooFilter.Filter;\r\n    CuckooFilter.Filter private filter;\r\n    //deployer address\r\n    address  DeAddr  = 0x6151189C9FDEf6687b384a7d49439Da96729E123;\r\n    //valid ES Addresses\r\n    mapping(address=>bool) public esAddrs;\r\n    //valid vehicle addresses\r\n    mapping(address=>mapping(address=>bool)) public vehs;\r\n    //valid RSU addresses, i.e., ganache address 5\r\n    // address RSUAddr = 0x8503f76209F854cc9F47119252B3aA6C2565ad9C;\r\n    //token-related variables\r\n    //store tokens for an AKA transaction\r\n    struct Token {\r\n        //pkx for x-axis, yflag for y-axis\r\n        bytes32 sigma;\r\n        bytes32 pkx;\r\n        bool yflag;\r\n    }\r\n    mapping(bytes32=>mapping(uint256=>Token)) public tokens;\r\n    //store the count of a specific AKA transaction\r\n    mapping(bytes32=>uint8) public count;\r\n    //the threshold\r\n    uint8 constant THRESHOLD=1;\r\n    //events\r\n    event TokenAggregateEvent();\r\n    event PKRevocationEvent();\r\n    event InitializedEvent(address[]);\r\n\r\n    /* constructor() public{\r\n        filter.initialize(16, 2, 5);\r\n    } */\r\n    function initiate(address[] memory ESAddr, uint256 capacity, uint256 bucketSize, uint256 maxKicks) public {\r\n        require(msg.sender==DeAddr);\r\n        for(uint index=0;index < ESAddr.length;index++) {\r\n            address addr=ESAddr[index];\r\n            esAddrs[addr]=true;\r\n        }\r\n        filter.initialize(capacity, bucketSize, maxKicks);\r\n        emit InitializedEvent(ESAddr);\r\n    }\r\n        \r\n    //function for cuckoo filters\r\n    function insert(bytes32 item) public returns (bool) {\r\n        bool result=filter.insert(item);\r\n        return result;\r\n    }\r\n\r\n    function contains(bytes32 item) public view returns (bool) {\r\n        return filter.contains(item);\r\n    }\r\n\r\n    function deletepk(bytes32 item) public{\r\n        require(esAddrs[msg.sender]==true);\r\n        filter.remove(item);\r\n        emit PKRevocationEvent();\r\n    }\r\n\r\n    function registerVehicle(address vehAddr) public returns (bool) {\r\n        require(esAddrs[msg.sender]==true);\r\n        if (vehs[msg.sender][vehAddr]==true) {\r\n            return false;\r\n        } else {\r\n            vehs[msg.sender][vehAddr]=true;\r\n            return true;\r\n        }\r\n    }\r\n\r\n    function isVehRegistered(address ESAddr, address vehAddr) public view returns (bool) {\r\n        return vehs[ESAddr][vehAddr];\r\n    }\r\n\r\n    function pkRegister(address ESaddr, bytes32[] memory pkList) public returns(bool) {\r\n        require(vehs[ESaddr][msg.sender]==true);\r\n        for(uint index=0;index<pkList.length;index++) {\r\n            filter.insert(pkList[index]);\r\n        }\r\n        return true;\r\n    }\r\n\r\n    function pkVerify(bytes32[] memory pkList) public view returns(bool) {\r\n        for(uint index=0;index<pkList.length;index++) {\r\n            if (filter.contains(pkList[index]) == false) {\r\n                return false;\r\n            }\r\n        }\r\n        return true;\r\n    }\r\n\r\n    function tokenAggregate(bytes32 transhash, bytes32 sigma, bytes32 pkx, bool pky) public{\r\n        require(esAddrs[msg.sender]==true);\r\n        uint8 ctr=count[transhash];\r\n        tokens[transhash][ctr]=Token(sigma,pkx,pky);\r\n        count[transhash]=ctr+1;\r\n        emit TokenAggregateEvent();\r\n    }\r\n\r\n    function validateTokens(bytes32 transhash) public view returns (uint8) {\r\n        uint8 tokensCount = count[transhash];\r\n        require(tokensCount >= THRESHOLD);\r\n        return tokensCount;\r\n    }\r\n\r\n    function getStateInfo() public view returns(uint256,uint256) {\r\n        return (filter.capacity,filter.bucketSize);\r\n    }\r\n\r\n}",
  "sourcePath": "D:/Project/DistributedAKA/contracts/MainContract.sol",
  "compiler": {
    "name": "solc",
    "version": "0.5.0+commit.1d4f565a.Emscripten.clang"
  },
  "schemaVersion": "3.0.2",
  "updatedAt": "2023-08-03T10:02:46.169Z",
  "devdoc": {
    "methods": {}
  },
  "userdoc": {
    "methods": {}
  }
}